S0180000666B7732345F4B44535F6C61625F65642E7372656367
S21400000000800020E904000019F801009545000072
S21400001045050000450500004505000000000000FD
S21400002000000000000000000000000029E40000BE
S2140000304505000000000000D1E5000015E60000C0
S2140000405D0500006105000065050000690500000B
S2140000506D050000710500007505000079050000BB
S2140000607D0500008105000085050000890500006B
S2140000708D0500009105000095050000990500001B
S2140000809D050000450500004505000045050000EB
S2140000904505000045050000450500004505000033
S2140000A0A1050000A5050000A9050000AD0500009B
S2140000B0B1050000B505000045050000B9050000C3
S2140000C0BD050000C1050000C5050000C90500000B
S2140000D0CD0500004505000045050000450500006B
S2140000E045050000450500004505000045050000E3
S2140000F045050000450500004505000045050000D3
S21400010045050000450500004505000045050000C2
S21400011045050000450500004505000045050000B2
S2140003F0450500004505000045050000FFFFFFFF1E
S214000400FFFFFFFFFFFFFFFFFFFFFFFFFEFFFFFFF8
S21400042010B5054C237833B9044B13B10448AFF329
S21400043000800123237010BD2089FF1F00000000EC
S214000440581F040008B5064B1BB106480649AFF313
S21400045000800648036813B1054B03B1984708BDF2
S21400046000000000581F04002489FF1F1C89FF1F7E
S21400047000000000154B002B08BF134B9D46A3F54C
S214000480803A00218B460F461348144A121A3CF055
S21400049090FE0F4B002B00D098470E4B002B00D041
S2140004A098470020002104000D000D48002802D0C7
S2140004B00C48AFF300803CF04DFE2000290015F0FC
S2140004C017F83CF033FE00BF000008000080002054
S2140004D000000000000000002089FF1FF8FCFF1F3E
S2140004E0000000000000000072B60D480D490160D3
S2140004F00D4880470D490E4A0E4B9A42BEBF51F832
S214000500040B42F8040BF8E70B490C4A0020914212
S214000510BCBF41F8040BFAE762B609488047000002
S21400052008ED00E000000000B1340000981F040051
S2140005300084FF1F2089FF1F2089FF1FF8FCFF1F74
S21400054075040000FFF7FEBF21480047214800471A
S21400055021480047214800472148004721480047D6
S21400056021480047214800472148004721480047C6
S21400057021480047214800472148004721480047B6
S21400058021480047214800472148004721480047A6
S2140005902148004721480047214800472148004796
S2140005A02148004721480047214800472148004786
S2140005B02148004721480047214800472148004776
S2140005C02148004721480047214800472148004766
S2140005D019F801009545000029E40000D1E5000067
S2140005E015E600004505000045050000450500002D
S2140005F045050000450500004505000045050000CE
S21400060045050000450500004505000045050000BD
S21400061045050000450500004505000045050000AD
S214000620450500004505000069EA010085EA01006D
S214000630C5CC010001CD01004505000045050000C0
S2140006408DF2010045050000B9F2010045050000E5
S214000650E5F2010045050000000000000000000073
S2140006602DE9F05F48F20048C1F6FF78F0C824BADA
S2140006702DBA36BA3FBAF0C298E8001C802900F0BE
S214000680D781C02900F0FF8090E80A0309BA1BBA98
S21400069098FA88F899FA89F9A2E80A035AF8040B36
S2140006A04FEA396ECCF844E8CCF800B0DCF884E8C1
S2140006B08EEA000E84EA0E0485EA040586EA05063C
S2140006C087EA0607F0C2CCF84478CCF800B0DCF82D
S2140006D084E881EA0E0183EA010388EA030889EACE
S2140006E00809A2E80A035AF8040B4FEA396ECCF858
S2140006F044E8CCF800B0DCF884E88EEA000E84EA21
S2140007000E0485EA040586EA050687EA0607F0C2AF
S214000710CCF84478CCF800B0DCF884E881EA0E0126
S21400072083EA010388EA030889EA0809A2E80A03BB
S2140007305AF8040B4FEA396ECCF844E8CCF800B00F
S214000740DCF884E88EEA000E84EA0E0485EA0405E6
S21400075086EA050687EA0607F0C2CCF84478CCF8A5
S21400076000B0DCF884E881EA0E0183EA010388EA37
S214000770030889EA0809A2E80A035AF8040B4FEAB4
S214000780396ECCF844E8CCF800B0DCF884E88EEAA1
S214000790000E84EA0E0485EA040586EA050687EA62
S2140007A00607F0C2CCF84478CCF800B0DCF884E851
S2140007B081EA0E0183EA010388EA030889EA080948
S2140007C0A2E80A035AF8040B4FEA396ECCF844E85C
S2140007D0CCF800B0DCF884E88EEA000E84EA0E045A
S2140007E085EA040586EA050687EA0607F0C2CCF81D
S2140007F04478CCF800B0DCF884E881EA0E0183EA9D
S214000800010388EA030889EA0809A2E80A035AF8F5
S214000810040B4FEA396ECCF844E8CCF800B0DCF8AC
S21400082084E88EEA000E84EA0E0485EA040586EA69
S214000830050687EA0607F0C2CCF84478CCF800B084
S214000840DCF884E881EA0E0183EA010388EA0308FB
S21400085089EA0809A2E80A035AF8040B4FEA396E37
S214000860CCF844E8CCF800B0DCF884E88EEA000E59
S21400087084EA0E0485EA040586EA050687EA060782
S214000880F0C2BDE8F09F90E8000398FA88F899FA5D
S21400089089F9A2E800035AF8040B4FEA3963CCF84A
S2140008A04438CCF800B0DCF8843883EA000384EAE5
S2140008B0030485EA040586EA050687EA060788EA49
S2140008C0070889EA0809A2E8F0035AF8040B4FEA79
S2140008D03963CCF84438CCF800B0DCF8843883EAC6
S2140008E0000384EA030485EA040586EA050687EA27
S2140008F0060788EA070889EA0809A2E8F0035AF812
S214000900040B4FEA3963CCF84438CCF800B0DCF876
S214000910843883EA000384EA030485EA040586EA49
S214000920050687EA060788EA070889EA0809A2E8AA
S214000930F0035AF8040B4FEA3963CCF84438CCF885
S21400094000B0DCF8843883EA000384EA030485EA0E
S214000950040586EA050687EA060788EA070889EA9C
S2140009600809A2E8F0035AF8040B4FEA3963CCF8FA
S2140009704438CCF800B0DCF8843883EA000384EA14
S214000980030485EA040586EA050687EA060788EA78
S214000990070889EA0809A2E8F0035AF8040B4FEAA8
S2140009A03963CCF84438CCF800B0DCF8843883EAF5
S2140009B0000384EA030485EA040586EA050687EA56
S2140009C0060788EA070889EA0809A2E8F0035AF841
S2140009D0040B4FEA3963CCF84438CCF800B0DCF8A6
S2140009E0843883EA000384EA030485EA040586EA79
S2140009F0050687EA060788EA070889EA0809A2E8DA
S214000A00F0035AF8040B4FEA3963CCF84438CCF8B4
S214000A1000B0DCF8843883EA000384EA030485EA3D
S214000A20040586EA050687EA0607F0C2BDE8F09FD9
S214000A30DAF800004FEA3763CCF84438CCF800B058
S214000A40DCF8843883EA000384EA030485EA0405B4
S214000A5086EA050687EA0607F0C2DAF804004FEAD7
S214000A603763CCF84438CCF800B0DCF8843883EA36
S214000A70000384EA030485EA040586EA050687EA95
S214000A800607F0C2DAF808004FEA3763CCF84438B5
S214000A90CCF800B0DCF8843883EA000384EA030468
S214000AA085EA040586EA050687EA0607F0C2DAF84C
S214000AB00C004FEA3763CCF84438CCF800B0DCF8CA
S214000AC0843883EA000384EA030485EA040586EA98
S214000AD0050687EA0607F0C2DAF810004FEA376321
S214000AE0CCF84438CCF800B0DCF8843883EA00034D
S214000AF084EA030485EA040586EA050687EA06070B
S214000B00F0C2DAF814004FEA3763CCF84438CCF871
S214000B1000B0DCF8843883EA000384EA030485EA3C
S214000B20040586EA050687EA0607F0C2DAF8180022
S214000B304FEA3763CCF84438CCF800B0DCF8843899
S214000B4083EA000384EA030485EA040586EA0506C8
S214000B5087EA0607F0C2DAF81C004FEA3763CCF8DB
S214000B604438CCF800B0DCF8843883EA000384EA22
S214000B70030485EA040586EA050687EA0607F0C246
S214000B80DAF820004FEA3763CCF84438CCF800B0E7
S214000B90DCF8843883EA000384EA030485EA040563
S214000BA086EA050687EA0607F0C2DAF824004FEA66
S214000BB03763CCF84438CCF800B0DCF8843883EAE5
S214000BC0000384EA030485EA040586EA050687EA44
S214000BD00607F0C2BDE8F09FAFF30080AFF30080D9
S214000BE02DE9F01F90E8F00024BA2DBA36BA3FBAC5
S214000BF048F21040C1F6FF70B1E8000F84EA08041E
S214000C0085EA090586EA0A0687EA0B0790E8011FC7
S214000C108BE8F000CCF80000CCF80080F0C989E83A
S214000C20F000CCF80000CCF80080F0C989E8F000AD
S214000C30CCF80000CCF80080F0C989E8F000CCF8C9
S214000C400000CCF80080F0C989E8F000CCF800007D
S214000C50CCF80080F0C989E8F000CCF80000CCF8A9
S214000C600080F0C989E8F000CCF80000CCF80080DD
S214000C70F0C989E8F000CCF80000CCF80080F0C994
S214000C8089E8F000CCF80000CCF80080F0C989E8CC
S214000C90F0000A2A1DD0CCF80000CCF80080F0C97D
S214000CA089E8F000CCF80000CCF80080F0C989E8AC
S214000CB0F0000C2A0DD0CCF80000CCF80080F0C96B
S214000CC089E8F000CCF80000CCF80080F0C989E88C
S214000CD0F000CCF80000CCF800809AE8F00091E82C
S214000CE0000F84EA080485EA090586EA0A0687EA08
S214000CF00B0724BA2DBA36BA3FBA83E8F000BDE82F
S214000D00F01F7047AFF30080AFF30080AFF30080B2
S214000D102DE9F01F90E8F00024BA2DBA36BA3FBA93
S214000D2048F23040C1F6FF7001EB021191E8000F67
S214000D3084EA080485EA090586EA0A0687EA0B07B4
S214000D4090E8011F8BE8F00031E9F000CCF80000D5
S214000D50CCF8008089E8F00031E9F000CCF800001B
S214000D60CCF8008089E8F00031E9F000CCF800000B
S214000D70CCF8008089E8F00031E9F000CCF80000FB
S214000D80CCF8008089E8F00031E9F000CCF80000EB
S214000D90CCF8008089E8F00031E9F000CCF80000DB
S214000DA0CCF8008089E8F00031E9F000CCF80000CB
S214000DB0CCF8008089E8F00031E9F000CCF80000BB
S214000DC0CCF8008089E8F00031E9F000CCF80000AB
S214000DD0CCF8008089E8F0000A2A21D031E9F0003A
S214000DE0CCF80000CCF8008089E8F00031E9F0008B
S214000DF0CCF80000CCF8008089E8F0000C2A0FD070
S214000E0031E9F000CCF80000CCF8008089E8F0006A
S214000E1031E9F000CCF80000CCF8008089E8F0005A
S214000E20CCF80000CCF800809AE8F00031E9000F1A
S214000E3084EA080485EA090586EA0A0687EA0B07B3
S214000E4024BA2DBA36BA3FBA83E8F000BDE8F01FE0
S214000E50704700BFAFF30080AFF30080AFF30080B1
S214000E602DE9F00148F2A041C1F6FF7191E8FE01BC
S214000E7080E8FE01BDE8F0014FF00000704700BFBB
S214000E802DE9F01F41F2000CCEF2080CD0B005920E
S214000E908B4692E8FE010CF6480989E8FE0148F206
S214000EA0804AC1F6FF7ACDF808A00DF11C0900BFF4
S214000EB089E8FE01DDF808A09AE8E00750F8042B60
S214000EC011BA1091CCF84418CCF800905AF8043BAC
S214000ED0CCF8C438CCF80080CCF8007050F8042B5E
S214000EE011BA5AF8043BCCF844181191CCF800908B
S214000EF0CCF8C438CCF80080CCF8007050F8042B3E
S214000F0011BA5AF8043BCCF844181291CCF8009069
S214000F10CCF8C438CCF80080CCF8007050F8042B1D
S214000F2011BA5AF8043BCCF844181391CCF8009048
S214000F30CCF8C438CCF80080CCF8007050F8042BFD
S214000F4011BA5AF8043BCCF844181491CCF8009027
S214000F50CCF8C438CCF80080CCF8007050F8042BDD
S214000F6011BA5AF8043BCCF844181591CCF8009006
S214000F70CCF8C438CCF80080CCF8007050F8042BBD
S214000F8011BA5AF8043BCCF844181691CCF80090E5
S214000F90CCF8C438CCF80080CCF8007050F8042B9D
S214000FA011BA5AF8043BCCF844181791CCF80090C4
S214000FB0CCF8C438CCF80080CCF8007050F8042B7D
S214000FC011BA5AF8043BCCF844181891CCF80090A3
S214000FD0CCF8C438CCF80080CCF8007050F8042B5D
S214000FE011BA5AF8043BCCF844181991CCF8009082
S214000FF0CCF8C438CCF80080CCF8007050F8042B3D
S21400100011BA5AF8043BCCF844181A91CCF8009060
S214001010CCF8C438CCF80080CCF8007050F8042B1C
S21400102011BA5AF8043BCCF844181B91CCF800903F
S214001030CCF8C438CCF80080CCF8007050F8042BFC
S21400104011BA5AF8043BCCF844181C91CCF800901E
S214001050CCF8C438CCF80080CCF8007050F8042BDC
S21400106011BA5AF8043BCCF844181D91CCF80090FD
S214001070CCF8C438CCF80080CCF8007050F8042BBC
S21400108011BA5AF8043BCCF844181E91CCF80090DC
S214001090CCF8C438CCF80080CCF8007050F8042B9C
S2140010A011BA5AF8043BCCF844181F91CCF80090BB
S2140010B0CCF8C438CCF80080CCF800704FF0300282
S2140010C020AB00BF53F8401CCCF8441853F83C1C27
S2140010D0CCF86818CCF8005053F81C1CCCF8C41890
S2140010E053F8081CCCF86818CCF80060DCF88418B4
S2140010F043F8041BCCF800905AF8041BCCF8C4182C
S214001100CCF80080CCF80070013ADBD10DF11C0958
S2140011100CF6C80A99E8FE018AE8FE010CF6880A71
S2140011209AE8FE01BBF1010B7FF4C2AEDDF8149025
S21400113050B089E8FE01BDE8F01F7047AFF30080AD
S2140011402DE9F04F48F2A044C1F6FF7494E8F00F82
S21400115082E8F00FFFF794FEBDE8F08FAFF3008053
S2140011600A464FF001018BE6AFF30080AFF3008034
S21400117030B4C579DFF8BC3504785D5D6C406240FC
S2140011800A70447862404A70847854408C70C578FF
S214001190027B5D5D6A400A73C5786C40CC70C57A88
S2140011A004795D5D6C400C7145796C404C718579B5
S2140011B06C408C71C5796C40CC71C57B047A5B5DE4
S2140011C063400B72447A63404B72847A63408B723E
S2140011D0C47A6340CB72437B5A404A73837B5A403F
S2140011E08A73C07B5040C87330BC704730B4DFF899
S2140011F0483593F8A02093F8B040DFF8381593F8F8
S214001200B55062408A5C93F8B14083F8A02093F80A
S214001210A12062408A5C93F8B24083F8A12093F83C
S214001220A22062408A5C93F8B34083F8A22093F829
S214001230A32062408A5C93F8B44083F8A32093F816
S214001240A420624093F8A5406C400C5D93F8B6501D
S21400125083F8A44093F8A6406C400C5D93F8B75012
S21400126083F8A54093F8A7406C400C5D93F8BA50FD
S21400127083F8A6408A5C93F8B84083F8A72093F8D2
S214001280A820624093F8AA406C400C5D93F8BB50CF
S21400129083F8A8408A5C93F8B94083F8AA2093F8AC
S2140012A0A920624093F8AB406C400C5D93F8BE50AA
S2140012B083F8A9408A5C93F8BF4083F8AB2093F884
S2140012C0AF20624093F8AE406C400C5D93F8BD5082
S2140012D083F8AF4093F8AD406C400C5D93F8BC507B
S2140012E083F8AE4093F8AC406C400C5D83F8AD409C
S2140012F0895C83F8AC10024630BC03F1B00103F100
S214001300B00035E7F0B4DFF8300490F8A44090F869
S214001310A05090F8A83090F8AC2084EA0501594017
S21400132082EA01060FF2642184EA0507CF5D774062
S2140013306F4080F8A07083EA0407CF5D77407C405A
S21400134080F8A44082EA03040C5D7440634080F891
S214001350A83085EA0203CB5C90F8A14090F8A5502F
S21400136073405A4080F8AC2085EA040790F8A9300C
S21400137090F8AD20CF5D85EA04065E405640774083
S214001380674080F8A17083EA0507CF5D77407D400F
S21400139080F8A55082EA03054D5D75406B4080F8E5
S2140013A0A93084EA0203CB5C90F8A24090F8A650DD
S2140013B073405A4080F8AD2085EA040790F8AA30BA
S2140013C090F8AE20CF5D85EA04065E405640774032
S2140013D0674080F8A27083EA0507CF5D77407D40BE
S2140013E080F8A65082EA03054D5D75406B4080F894
S2140013F0AA3084EA0203CB5C90F8A34090F8A7508A
S21400140073405A4080F8AE2085EA040790F8AB3067
S21400141090F8AF20CF5D85EA04065E4056407740E0
S214001420674080F8A37083EA0507CF5D77407D406C
S21400143080F8A75082EA03054D5D75406B4080F842
S214001440AB3084EA0203C95C7140514080F8AF10AB
S214001450F0BC70472DE9F04F82B0B8480FF22C125E
S2140014600421037BD45C8DF8064090F80890145D48
S21400147012F809A0155D12F80A608DF8056090F85C
S214001480048012F806E012F808608DF80460965D95
S2140014908DF80360965D9DF803B08DF800600678C1
S2140014A0975D8DF80270D75D8DF8017012F807C051
S2140014B09DF800708BEA07079DF804B08BEA0707D3
S2140014C08EEA07078AEA070789EA07076F40674038
S2140014D06C405F409DF805B08CEA070777408BEAC2
S2140014E00E0B8AEA0B0A9DF806B085EA0A0A8BEA12
S2140014F00A0A83EA0A0A9DF801B08CEA0A0A8BEA0D
S2140015000A0A9DF800B086EA0A0A8BEA0A0A9DF8DB
S21400151006B08BEA04049DF802B08CEA04048BEA59
S214001520040474409DF8006074409DF803607440A5
S2140015309DF8016086EA0C068BEA060C9DF80060B2
S21400154086EA0C0C9DF8046086EA0C0688EA060615
S2140015508EEA060688EA04048EEA04049DF805E08E
S2140015608EEA060689EA060675406B40037088EA2E
S2140015700A0A89EA0404077180F808A00473401C6C
S214001580491E7FF46EAF02B0BDE8F08F000204067D
S214001590080A0C0E10121416181A1C1E20222426D6
S2140015A0282A2C2E30323436383A3C3E40424446C6
S2140015B0484A4C4E50525456585A5C5E60626466B6
S2140015C0686A6C6E70727476787A7C7E80828486A6
S2140015D0888A8C8E90929496989A9C9EA0A2A4A696
S2140015E0A8AAACAEB0B2B4B6B8BABCBEC0C2C4C686
S2140015F0C8CACCCED0D2D4D6D8DADCDEE0E2E4E676
S214001600E8EAECEEF0F2F4F6F8FAFCFE1B191F1D01
S214001610131117150B090F0D030107053B393F3D45
S214001620333137352B292F2D232127255B595F5D35
S214001630535157554B494F4D434147457B797F7D25
S214001640737177756B696F6D636167659B999F9D15
S214001650939197958B898F8D83818785BBB9BFBD05
S214001660B3B1B7B5ABA9AFADA3A1A7A5DBD9DFDDF5
S214001670D3D1D7D5CBC9CFCDC3C1C7C5FBF9FFFDE5
S214001680F3F1F7F5EBE9EFEDE3E1E7E52A480FF2D2
S214001690B00190F8A0208A5C90F8A63080F8A020D0
S2140016A090F8A1208A5C80F8A12090F8A2208A5C9D
S2140016B080F8A22090F8A3208A5C80F8A320CB5C58
S2140016C090F8A72080F8A73090F8A530CB5C80F87B
S2140016D0A63090F8A430CB5C80F8A5308A5C90F8F1
S2140016E0A93080F8A420CB5C90F8AB2080F8AB3013
S2140016F08A5C90F8A83080F8A920CB5C90F8AA20E5
S21400170080F8AA308A5C90F8AD3080F8A820CB5CD0
S21400171090F8AC2080F8AC3090F8AE30CB5C80F817
S214001720AD3090F8AF30CB5C80F8AE30895C80F896
S214001730AF107047802800003C89FF1FDC89FF1F20
S21400174052096AD53036A538BF40A39E81F3D7FB31
S2140017507CE339829B2FFF87348E4344C4DEE9CB7B
S214001760547B9432A6C2233DEE4C950B42FAC34EF0
S214001770082EA16628D924B2765BA2496D8BD125A6
S21400178072F8F66486689816D4A45CCC5D65B6924A
S2140017906C704850FDEDB9DA5E154657A78D9D84EE
S2140017A090D8AB008CBCD30AF7E45805B8B345060E
S2140017B0D02C1E8FCA3F0F02C1AFBD0301138A6B28
S2140017C03A9111414F67DCEA97F2CFCEF0B4E67358
S2140017D096AC7422E7AD3585E2F937E81C75DF6E06
S2140017E047F11A711D29C5896FB7620EAA18BE1B6C
S2140017F0FC563E4BC6D279209ADBC0FE78CD5AF412
S2140018001FDDA8338807C731B11210592780EC5F57
S21400181060517FA919B54A0D2DE57A9F93C99CEFB3
S214001820A0E03B4DAE2AF5B0C8EBBB3C83539961B4
S214001830172B047EBA77D626E169146355210C7DF2
S21400184030B50446154681B0C5F10E0004F8010B0C
S214001850204619F08BFDC5F10F02601901B0BDE8F6
S2140018603040002119F0E8BD2DE9F84F84B0DFF8CC
S214001870504D037884F8A030002A037984F8A1300C
S214001880037A84F8A230037B84F8A330437884F884
S214001890A430437984F8A530437A84F8A630437B95
S2140018A084F8A730837884F8A830837984F8A93040
S2140018B0837A84F8AA30837B84F8AB30C37884F8C4
S2140018C0AC30C37984F8AD30C37A84F8AE30C07BD0
S2140018D084F8AF00087884F8B000087984F8B1007E
S2140018E0087A84F8B200087B84F8B300487884F855
S2140018F0B400487984F8B500487A84F8B600487B86
S21400190084F8B700887884F8B800887984F8B90035
S214001910887A84F8BA00887B84F8BB00C87884F894
S214001920BC00C87984F8BD00C87A84F8BE00C87BBD
S21400193084F8BF0000F070850120FFF757FCFFF722
S214001940E1FC0220FFF752FCFFF7DCFC0420FFF767
S2140019504DFCFFF7D7FC0820FFF748FCFFF7D2FC4A
S21400196094F8A00094F8B0100FF6147594F8A2201E
S21400197094F8A33094F8B46094F8A6C094F8B7B07E
S21400198094F8AAE094F8AB9094F8ACA04840285C91
S21400199094F8A11084F8A00094F8B1004140695C66
S2140019A084F8A11094F8B2104A40AA5C84F8A220E9
S2140019B094F8B3205340EB5C84F8A33094F8A4303A
S2140019C086EA030794F8B53094F8A5605E40AE5DED
S2140019D084F8A46094F8B66086EA0C0C15F80CC07F
S2140019E084F8A5C094F8A7C08BEA0C0C15F80CC0B8
S2140019F084F8A6C0EF5D94F8B8C084F8A77094F891
S214001A00A8708CEA070C94F8BA7087EA0E0E15F8E0
S214001A100EE084F8A8E015F80CC094F8A9E084F865
S214001A20AAC094F8B9C08CEA0E0894F8BBE08EEA17
S214001A30090915F8099084F8A99015F8088094F813
S214001A40AF9084F8AB8094F8BF8088EA09088DF8D8
S214001A50008094F8AE9094F8BE8088EA090815F8DD
S214001A60088094F8AD9084F8AF8094F8BD8088EA3A
S214001A70090915F8099084F8AE9094F8BC9089EAA4
S214001A800A0915F8099094F8B0A084F8AD909DF86E
S214001A90009015F8099084F8AC9015F80B9089F032
S214001AA0100989EA0A0984F8B09094F8B09089EA97
S214001AB0000084F8B10094F8B100484084F8B20001
S214001AC0A95C94F8BC00484084F8BC0094F8B200C6
S214001AD0504084F8B30015F80E1094F8B40048404F
S214001AE084F8B40094F8B40094F8BF10584084F812
S214001AF0B50094F8B500464086EA0B0084F8B700B7
S214001B0084F8B66094F8B800695C484084F8B80079
S214001B1094F8B80080EA0C0989EA070787EA0E00FD
S214001B2084F8BB0084F8B99084F8BA7094F8BC00C6
S214001B3080EA080894F8BE0084F8BD8088EA000AA7
S214001B4094F8BF0084F8BEA08AEA000B84F8BFB001
S214001B50FFF7D8FB94F8A00094F8B01094F8B420DF
S214001B6094F8B53094F8ABC094F8BCE04840285CD4
S214001B7094F8B11084F8A00094F8A1004840285CBE
S214001B8094F8B21084F8A10094F8A2004840285CAB
S214001B9094F8A31084F8A20094F8B3004140695C5E
S214001BA084F8A31094F8A4104A4094F8A51059405D
S214001BB0695C94F8A73084F8A41094F8A6107140D5
S214001BC0695C84F8A51094F8B7104B40EB5C84F879
S214001BD0A630AA5C94F8B83084F8A72094F8A82019
S214001BE05A4094F8AA307B40EB5C84F8A830AA5C94
S214001BF084F8AA2094F8A92089EA020394F8BB2066
S214001C0082EA0C0C15F80CC084F8A9C094F8AEC093
S214001C10EB5C84F8AB308AEA0C0C15F80CC094F830
S214001C20AF3084F8AFC08BEA030394F8ADC088EAFF
S214001C300C0C15F80CC084F8AEC094F8ACC08EEA54
S214001C400C0C15F80CC084F8ADC0EB5C84F8AC3016
S214001C50695C94F8B03081F02001594084F8B010E7
S214001C6094F8B03094F8B110594084F8B11094F854
S214001C70B13094F8B210594084F8B210285C94F849
S214001C80B21080EA0E0084F8BC0094F8B300484016
S214001C9084F8B300A95C94F8B400484084F8B40013
S214001CA094F8B41094F8B500484084F8B50094F859
S214001CB0B500464094F8B70084F8B660704084F8E3
S214001CC0B70094F8B80015F80B10484084F8B80030
S214001CD094F8B80080EA090989EA070787EA02004B
S214001CE084F8BB0084F8B99084F8BA7094F8BC0005
S214001CF080EA080888EA0A0A8AEA0B0B84F8BD809C
S214001D0084F8BEA084F8BFB0FFF7FCFA94F8A000F1
S214001D1094F8B01094F8B42094F8B53094F8ABC0AA
S214001D2094F8BCE04840285C94F8B11084F8A00011
S214001D3094F8A1004840285C94F8B21084F8A100FA
S214001D4094F8A2004840285C94F8A31084F8A200F7
S214001D5094F8B3004140695C84F8A31094F8A4108A
S214001D604A4094F8A5105940695C94F8A73084F866
S214001D70A41094F8A6107140695C84F8A51094F835
S214001D80B7104B40EB5C84F8A630AA5C94F8B830E9
S214001D9084F8A72094F8A8205A4094F8AA307B40EC
S214001DA0EB5C84F8A830AA5C84F8AA2094F8A920F2
S214001DB089EA020394F8BB2082EA0C0C15F80CC0E2
S214001DC084F8A9C094F8AEC0EB5C84F8AB308AEA1D
S214001DD00C0C15F80CC094F8AF3084F8AFC08BEA42
S214001DE0030394F8ADC088EA0C0C15F80CC084F810
S214001DF0AEC094F8ACC08EEA0C0C15F80CC084F893
S214001E00ADC0EB5C84F8AC30695C94F8B03081F01F
S214001E104001594084F8B01094F8B03094F8B110EE
S214001E20594084F8B11094F8B13094F8B210594083
S214001E3084F8B210285C94F8B21080EA0E0084F899
S214001E40BC0094F8B300484084F8B300A95C94F84A
S214001E50B400484084F8B40094F8B41094F8B50080
S214001E60484084F8B50094F8B500704084F8B60091
S214001E7094F8B61094F8B700484084F8B70094F881
S214001E80B80015F80B10484084F8B80094F8B8006D
S214001E9080EA090084F8B90094F8B900784084F81C
S214001EA0BA0094F8BA1081EA020084F8BB0094F8ED
S214001EB0BC0080EA080084F8BD0094F8BD0080EA03
S214001EC00A0686EA0B0784F8BE6084F8BF70FFF740
S214001ED019FA94F8A00094F8B01094F8B42094F886
S214001EE0B53094F8BAC094F8BDE04840285C94F841
S214001EF0B11084F8A00094F8A1004840285C94F83B
S214001F00B21084F8A10094F8A2004840285C94F827
S214001F10A31084F8A20094F8B3004140695C84F8EA
S214001F20A31094F8A410514094F8A5205A40AA5C37
S214001F3094F8B63084F8A42094F8A6205A40AA5CF8
S214001F4094F8A73084F8A52094F8B7205340EB5CAB
S214001F5084F8A630695C94F8B83084F8A71094F832
S214001F60A810594094F8AA308CEA0303EB5C94F866
S214001F70ABC084F8A830695C94F8B93084F8AA102D
S214001F8094F8A9104B4094F8BB1081EA0C0C15F895
S214001F900CC084F8A9C094F8AEC0EB5C84F8AB30F3
S214001FA086EA0C0C15F80CC094F8AF3084F8AFC075
S214001FB07B4094F8ADC08EEA0C0C15F80CC094F873
S214001FC0BCE084F8AEC094F8ACC08EEA0C0C15F8F1
S214001FD00CC084F8ADC0EB5C84F8AC30AA5C94F816
S214001FE0B03082F080025A4084F8B02094F8B030C6
S214001FF094F8B12083EA020894F8B22084F8B180FD
S21400200088EA020984F8B290285C80EA0E0084F818
S214002010BC0094F8B30089EA000084F8B300695C59
S21400202094F8B400484084F8B40094F8B41094F8D7
S214002030B50081EA000A94F8B60084F8B5A08AEAEA
S214002040000B84F8B6B094F8B7008BEA000084F86A
S214002050B700E95D94F8B800484084F8B80094F8F2
S214002060B81094F8B900484084F8B90094F8B9104C
S21400207094F8BA00484084F8BA0094F8BA1094F875
S214002080BB00484084F8BB0094F8BC1094F8BD0030
S214002090484084F8BD0094F8BD00704084F8BE0047
S2140020A094F8BE00784084F8BF00FFF72BF994F848
S2140020B0A00094F8B01094F8B42094F8A73094F8E0
S2140020C0BA6094F8BE704840285C94F8A31084F870
S2140020D0A00094F8A10088EA0000285C84F8A1001B
S2140020E094F8A20089EA0000285C84F8A20094F81C
S2140020F0B3004140695C84F8A31094F8A4105140E2
S21400210094F8A5208AEA0202AA5C84F8A42094F82F
S214002110A6208BEA0202AA5C84F8A52094F8B720D1
S2140021205340EB5C84F8A630695C94F8B83084F8C9
S214002130A71094F8A810594094F8AA307340EB5CA6
S21400214094F8AB6084F8A830695C94F8B93084F8E9
S214002150AA1094F8A9104B4094F8BB104E40AE5D00
S21400216084F8A960EB5C94F8BF6084F8AB3094F810
S214002170AF30734094F8AE607E40AE5D94F8BD70AC
S21400218084F8AF6094F8AD607E40AE5D94F8BC70A5
S21400219084F8AE6094F8AC607E40AE5D84F8AD60C6
S2140021A0EB5C84F8AC30AA5C94F8B03082F01B028A
S2140021B05A4084F8B02094F8B02082EA080284F8E6
S2140021C0B12094F8B12082EA090284F8B220285C93
S2140021D094F8B220784084F8BC0094F8B3005040DD
S2140021E084F8B300695C94F8B400484084F8B400FE
S2140021F094F8B40080EA0A0084F8B50094F8B500B4
S21400220080EA0B0084F8B60094F8B61094F8B7008D
S214002210484094F8BF1084F8B700695C94F8B8009A
S21400222081EA000694F8B90094F8BC1084F8B86007
S21400223086EA000794F8BA0084F8B97087EA0008BE
S21400224094F8BB0084F8BA8088EA000084F8BB00E3
S21400225094F8BD0081EA000994F8BE0084F8BD90A9
S21400226089EA000A94F8BF0084F8BEA08AEA000B48
S21400227084F8BFB0FFF746F894F8A00094F8B010C2
S21400228094F8B42094F8B53094F8ABC094F8BCE059
S2140022904840285C94F8B11084F8A00094F8A10097
S2140022A04840285C94F8B21084F8A10094F8A20084
S2140022B04840285C94F8A31084F8A20094F8B30071
S2140022C04140695C84F8A31094F8A410514094F837
S2140022D0A5205A40AA5C94F8B63084F8A42094F856
S2140022E0A6205A40AA5C94F8A73084F8A52094F853
S2140022F0B7205340EB5C84F8A630695C94F8AA30AB
S21400230084F8A71088EA030394F8A810EB5C84F816
S214002310A8307140695C84F8AA1094F8A91087EA7E
S214002320010394F8BB1081EA0C0C15F80CC084F875
S214002330A9C094F8AEC0EB5C84F8AB308AEA0C0C0B
S21400234015F80CC094F8AF3084F8AFC08BEA0303DE
S21400235094F8ADC089EA0C0C15F80CC084F8AEC031
S21400236094F8ACC08EEA0C0C15F80CC084F8ADC01E
S214002370EB5C84F8AC30AA5C94F8B03082F036029D
S2140023805A4084F8B02094F8B03094F8B1205A40FF
S21400239084F8B12094F8B2305A4094F8B33084F8F8
S2140023A0B2205A40285C84F8B32080EA0E0094F8E5
S2140023B0B42084F8BC0080EA0900695C514084F8C7
S2140023C0B41094F8B520514084F8B51094F8B620AF
S2140023D0514084F8B61094F8B720514084F8B710EE
S2140023E015F80B1094F8BB2084F8BD00714084F8F3
S2140023F0B81080EA0A00794084F8B91084F8BE0064
S21400240081EA080184F8BA1080EA0B00514084F88B
S214002410BB1084F8BF0060E00FF258412CC901A839
S21400242021462CC09DF8042004F1B000FEF7A0FE63
S2140024300DF1050504F110065FF0090715F8012BEC
S2140024403146A6F11000FEF793FE10367F1EF5D13A
S21400245004F1A00004F190010422037811F8015B56
S2140024606B40037011F8015B43786B40437011F8C2
S214002470015B83786B40837011F8015BC3786B4017
S214002480C370001D521EE8D1FFF700F95FF0090582
S21400249004EB051104F1A00010390422037811F8AA
S2140024A0016B7340037011F8016B437873404370FF
S2140024B011F8016B83787340837011F8016BC37851
S2140024C07340C370001D521EE8D1FEF7C3FFFFF72E
S2140024D0DDF86D1EEDB2002DDAD194F8A00094F868
S2140024E0B01048400499087094F8A10094F8B11010
S2140024F048400499087194F8A20094F8B210484035
S2140025000499087294F8A30094F8B310484004990C
S214002510087394F8A40094F8B410484004994870DE
S21400252094F8A50094F8B51048400499487194F8BA
S214002530A60094F8B61048400499487294F8A7008C
S21400254094F8B71048400499487394F8A80094F893
S214002550B81048400499887094F8A90094F8B91007
S21400256048400499887194F8AA0094F8BA10484034
S2140025700499887294F8AB0094F8BB10484004990C
S214002580887394F8AC0094F8BC1048400499C8705E
S21400259094F8AD0094F8BD1048400499C87194F8BA
S2140025A0AE0094F8BE1048400499C87294F8AF0084
S2140025B094F8BF1048400499C87305B0BDE8F08F82
S2140025C03C89FF1F2DE9FF4F95B04FF002099DF89B
S2140025D08C00DDF89080DDF894A0C0F10F0080B28A
S2140025E012909DF88C00C0F10F010A91BDF85810AA
S2140025F0494211910DEB00011091991CADF826107F
S214002600190AADF82410BDF85810090AADF82210C2
S2140026109DF89C10891E89008DF8201004A9084496
S2140026200C909DF89C000B900D900BE06946504670
S21400263012F07EF9002FA244A34440F0E7801198E0
S21400264050441590A9F101001FFA80F9B9F1000F66
S214002650289803D0C00700F1B48002E0C00740F11C
S21400266005812698002800F0A9800D980428C0F25D
S214002670A5809DF88C009DF88C202299C0F10E0054
S2140026808DF810000DF1110018F070FE0C980A9AE3
S2140026900021401C18F0D0FEBDF8600000B14020BC
S2140026A09DF820209DF81010104308438DF8100068
S2140026B0BDF858008DF81F00BDF822008DF81E00EA
S2140026C0BDF86000E8B10E28B4BF83464FF00E0B8D
S2140026D010220021684618F0AFFE17995A460DF1F1
S2140026E0020018F043FEBDF86000BDF826408DF8E5
S2140026F001000127BDF824008DF800000025EB46F8
S21400270008E0BDF85840DDF854B00027002C14BF90
S2140027100125022504AA414604A811F051FF022D06
S21400272026DAC5F102056D1E594604A8102CACBF6A
S21400273010262646F6B2324612F0FAF804AA4146A9
S21400274004A811F03DFFA41B3800A4B203D0DDF8A6
S2140027505CB00027B61EF6B2002CB344E4D1BDF838
S214002760580000281EBF0446DDF854B0002DDAD10C
S2140027709DF88C009DF88C202299C0F10E008DF8F3
S21400278000000DF1010018F0F1FD10980A9A0021E2
S214002790401C18F051FE6A464146684611F010FF8C
S2140027A09DF89C2004A9684612F0C2F828980B9A57
S2140027B0C007269869462ED418F0D8FDB9F1000F48
S2140027C054D0BDF8580000283FF43CAF0746129D91
S2140027D09DF88C2022990020CDE90E009DF88C00F3
S2140027E0C0F10E008DF810000DF1110018F0BEFDBE
S2140027F00C980A9A0021401C18F01EFE04A8694294
S2140028004618DDF854B0002F3FF419AF102FACBFB8
S21400281010243C4607E018F0E9FD0028CED1012040
S21400282019B0BDE8F08FDDE90E01401C61F1FF3103
S214002830CDE90E012A460EA906F1100018F0B2FDE9
S2140028406A46414604A811F0BBFE15983F1B50454A
S214002850BFB2E2B23FF4EAAE5946684612F068F8F4
S21400286022466946504618F081FDE3E6002019B07E
S214002870BDE8F08F01020408102040801B360000DF
S214002880637C777BF26B6FC53001672BFED7AB7628
S214002890CA82C97DFA5947F0ADD4A2AF9CA472C0D3
S2140028A0B7FD9326363FF7CC34A5E5F171D8311540
S2140028B004C723C31896059A071280E2EB27B27561
S2140028C009832C1A1B6E5AA0523BD6B329E32F84D9
S2140028D053D100ED20FCB15B6ACBBE394A4C58CFD1
S2140028E0D0EFAAFB434D338545F9027F503C9FA8A5
S2140028F051A3408F929D38F5BCB6DA2110FFF3D273
S214002900CD0C13EC5F974417C4A77E3D645D197326
S21400291060814FDC222A908846EEB814DE5E0BDB20
S214002920E0323A0A4906245CC2D3AC629195E47957
S214002930E7C8376D8DD54EA96C56F4EA657AAE08B1
S214002940BA78252E1CA6B4C6E8DD741F4BBD8B8A4C
S214002950703EB5664803F60E613557B986C11D9EB2
S214002960E1F8981169D98E949B1E87E9CE5528DF29
S2140029708CA1890DBFE6426841992D0FB054BB1655
S21400298000281DBF0949086000200120704710B5C7
S214002990064C07492068A1FB00016FF004020023E3
S2140029A000F01EF82260104610BD0000C085FF1F14
S2140029B0C160A81010F8012B11F8013B012A28BFAE
S2140029C09A42F7D0D01A70479140031C90409C461C
S2140029D0203A9340194352426346D3401943704706
S2140029E04BB942B9002908BF002802D04FF0FF318A
S2140029F0084600F03BB882B0EC462DE9005000F0E7
S214002A001DF8DDF804E002B00CBC70472DE97043F9
S214002A10069E14461D468046894600F029F804FBAB
S214002A2001F300FB0533A4FB00451D44B8EB04048A
S214002A3069EB0505C6E90045BDE870832DE97043DE
S214002A40069E1446804689461D4600F05DF900FB4A
S214002A5005F504FB0153A0FB04451D44B8EB040434
S214002A6069EB0505C6E90045BDE87083704700BF01
S214002A7000292DE9F00FC0F29F800024002BC0F241
S214002A809680154606460F46002B3ED18A4257D9F9
S214002A90B2FA82F34BB1C3F1200201FA03F720FA2F
S214002AA002F29D40174300FA03F6290CB7FBF1F239
S214002AB0330C01FB127CA8B243EA0C4700FB02F37E
S214002AC0BB4209D97F1902F1FF3C80F00181BB426D
S214002AD040F2FE80023A2F44FF1AB7FBF1F3B6B27B
S214002AE001FB137146EA014100FB03F0884208D956
S214002AF0491903F1FF3780F0ED80884240F2EA8002
S214002B00023B43EA0242002303E08B420AD9002339
S214002B101A461046194614B1404261EB4101BDE821
S214002B20F00F7047B3FA83F8B8F1000F40F08480D6
S214002B308B4202D3824200F2DE8000230122E8E7C5
S214002B4012B90123B3FBF2F5B5FA85F2002A39D1A2
S214002B507F1B280C1FFA85FC0123B7FBF0F1320C13
S214002B6000FB117742EA07470CFB01F2BA4207D98D
S214002B707F1901F1FF3802D2BA4200F2C180414605
S214002B80BF1AB7FBF0F2B6B200FB127046EA00407E
S214002B900CFB02FC844507D9401902F1FF3702D22C
S214002BA0844500F2AB803A4642EA0142B1E7E4438C
S214002BB0524263EB430364E7404261EB41014FF04E
S214002BC0FF345BE79540C2F1200327FA03F1280C97
S214002BD026FA03F39740B1FBF0F81F433B0C00FBCB
S214002BE018111FFA85FC43EA01410CFB08F38B42DF
S214002BF006FA02F608D9491908F1FF3279D28B4253
S214002C0077D9A8F102082944C91AB1FBF0F3BFB27C
S214002C1000FB131147EA01470CFB03F2BA4207D93F
S214002C207F1903F1FF3160D2BA425ED9023B2F44CE
S214002C30BF1A43EA084390E7C8F1200203FA08FCEB
S214002C4025FA02F343EA0C0C4FEA1C4921FA02F378
S214002C5001FA08F720FA02F2B3FBF9F1174309FB71
S214002C6011333A0C1FFA8CFB42EA03430BFB01FAC2
S214002C709A4505FA08F008D913EB0C0301F1FF3268
S214002C8035D29A4533D902396344CAEB0303B3FB02
S214002C90F9F209FB1233BFB247EA03470BFB02F90E
S214002CA0B94508D917EB0C0702F1FF331BD2B9451B
S214002CB019D9023A674442EA0145A5FB0001C9EB6F
S214002CC007078F424FF000030AD305D02A4620E7B5
S214002CD0624601E73B4614E706FA08F68642F5D256
S214002CE06A1E002315E71A46E5E70B46A0E71146DD
S214002CF0CBE7904688E7434642460AE7023A53E760
S214002D0002392F443CE700BF2DE9F00F1446054674
S214002D100E46002B43D18A4253D9B2FA82F757B1F6
S214002D20C7F1200620FA06F601FA07F302FA07F4BE
S214002D301E4300FA07F5210CB6FBF1F22B0C01FB43
S214002D401267A0B243EA074600FB02F3B34209D972
S214002D50361902F1FF3780F0F680B34240F2F38076
S214002D60023A2644F61AB6FBF1F3ADB201FB136144
S214002D7045EA014100FB03F0884208D9091903F12E
S214002D80FF3680F0E280884240F2DF80023B43EA72
S214002D900242002310461946BDE8F00F70478B42EA
S214002DA04AD8B3FA83F6002E4DD18B4202D3824224
S214002DB000F2D6800023012210461946BDE8F00F27
S214002DC0704712B90124B4FBF2F4B4FA84F2002A74
S214002DD07CD1091B260CA7B20123B1FBF6F02A0C06
S214002DE006FB101142EA014107FB00F28A4207D9AE
S214002DF0091900F1FF3C02D28A4200F2C380604605
S214002E00891AB1FBF6F2ADB206FB121145EA01458E
S214002E1007FB02F7AF4208D92C1902F1FF3180F008
S214002E209680A74240F29380023A42EA0042104659
S214002E301946BDE8F00F704700231A46104619469B
S214002E40BDE8F00F7047C6F1200522FA05F4B3403E
S214002E501C434FEA144821FA05F301FA06F720FA54
S214002E6005F5B3FBF8FC2F4308FB1C333D0C1FFA9B
S214002E7084FA45EA03430AFB0CF9994502FA06FB75
S214002E8004D91B190CF1FF326DD39446C9EB03032A
S214002E90B3FBF8F508FB1533BFB247EA03470AFB56
S214002EA005F8B84504D93F1905F1FF3361D31D462F
S214002EB045EA0C4CACFB0B23C8EB07079F424FF0D0
S214002EC0000549D345D062462B4663E79440C2F1DD
S214002ED0200321FA03FC260C20FA03F301FA02F57C
S214002EE0BCFBF6F843EA05010B0C06FB18CCA7B2B0
S214002EF043EA0C4C07FB08F3634500FA02F509D9D0
S214002F001CEB040C08F1FF323AD2634538D9A8F11D
S214002F100208A444C3EB0C0CBCFBF6F389B206FB18
S214002F2013CC41EA0C4107FB03F28A4207D9091980
S214002F3003F1FF3022D28A4220D9023B2144891A6B
S214002F4043EA084349E73A460CE733461FE70A4692
S214002F506BE7B0409042B6D20CF1FF32002319E77F
S214002F603346324616E799458FD9ACF1020C234416
S214002F708CE7B8459BD9023D274499E70346DEE730
S214002F809046C7E7023821443AE700BF0FB480B541
S214002F9082B000AF0B4B1B78002B02D14FF0FF33F3
S214002FA009E007F114033B60074839693A6800F006
S214002FB0D5F878607B6818460837BD46BDE880407F
S214002FC004B07047FC89FF1FCD2F000080B582B08B
S214002FD000AF78600A4B1B78002B02D14FF0FF330E
S214002FE009E0074B9B68064A51683A1D0846114699
S214002FF001229847012318460837BD4680BD00BF0A
S214003000FC89FF1F80B586B000AFB9607A603B6070
S2140030100346FB73BB687B610CE097F90F203B6AA5
S214003020104698473B681B685A1C3B681A607B69C9
S21400303001337B617A697B689A42EEDB1837BD46BE
S21400304080BD00BF80B48DB000AFF860B9607A6014
S2140030503B600023FB61FB68BB61BB695A1CBA611D
S21400306000221A707B68002B36D0BB681B68FB6298
S214003070FB6A002B07D1BB6930221A70FB6901334B
S214003080FB61FB6964E023E0FA6A3B6892FBF3F3BA
S2140030907B617B693A6802FB03F3FA6AD31ABB6268
S2140030A0BB6A002B06DABB6A3B623B6AC3F130039D
S2140030B0BB6202E0BB6A3033BB627B69FB62BB6902
S2140030C05A1CBA61BA6AD2B21A70FB690133FB6144
S2140030D0FB6A002BD8D13AE0BB681B687B627B6A30
S2140030E0002B07D1BB6930221A70FB690133FB61E4
S2140030F0FB692DE028E03B687A6AB2FBF3F33B619C
S2140031003B683A6902FB03F37A6AD31A3B623B6A6E
S214003110092B03D83B6A30333B620AE097F8383015
S214003120002B01D0412300E061233A6A13440A3B96
S2140031303B623B697B62BB695A1CBA613A6AD2B28F
S2140031401A70FB690133FB617B6A002BD3D1FB69E4
S21400315018463437BD465DF8047B704780B59CB092
S21400316002AFF860B9607A6000233B660023FB6517
S2140031700023BB61002387F84A3000233B61BB680D
S2140031807B6688E17B6C252B06D0FB68786C9847BD
S214003190BB690133BB617BE1012387F84B30002319
S2140031A07B650023BB651CE07B6E01337B667B6E14
S2140031B01B785BB27B647B6C2F2B0DDD7B6C392B15
S2140031C00ADC7A6D13469B0013445B001A467B6C40
S2140031D01344303B7B6504E07B6E013B7B6601233A
S2140031E0BB65BB6D002BDFD006233B657B6E0133D2
S2140031F07B667B6E1B785BB22E2B25D100233B654E
S2140032000023BB651CE07B6E01337B667B6E1B7800
S2140032105BB27B647B6C2F2B0DDD7B6C392B0ADC61
S2140032203A6D13469B0013445B001A467B6C1344AE
S214003230303B3B6504E07B6E013B7B660123BB6550
S214003240BB6D002BDFD002E07B6E013B7B667B6EA6
S21400325001337B667B6E1B785BB27B647B6C642B76
S2140032601BD07B6C692B18D07B6C662B15D07B6CC7
S214003270462B12D07B6C782B0FD07B6C582B0CD047
S2140032807B6C6F2B09D07B6C622B06D07B6C702B13
S21400329003D07B6C752B40F0BA807B6C642B02D01D
S2140032A07B6C692B17D17B681A1D7A601B687B6163
S2140032B007F11C0207F1140397F84B100091104613
S2140032C0194601220A23FFF7BDFEF86507F11C0226
S2140032D0FB6D13443B667B6C582B02D07B6C782BC3
S2140032E01DD17B6C782B02D1002387F84B307B688E
S2140032F01A1D7A601B683B6107F11C0207F1100378
S21400330097F84B1000911046194600221023FFF73D
S21400331099FEF86507F11C02FB6D13443B667B6C57
S2140033206F2B07D17B681A1D7A601B683B610823E8
S21400333087F84A307B6C622B0CD17B681A1D7A604A
S2140033401B683B61022387F84A3007F11C02FB6DBD
S21400335013443B667B6C702B0CD17B681A1D7A601D
S2140033601B683B61102387F84A3007F11C02FB6D8F
S21400337013443B667B6C752B0CD17B681A1D7A60F8
S2140033801B683B610A2387F84A3007F11C02FB6D75
S21400339013443B667B6C6F2B08D07B6C622B05D08E
S2140033A07B6C702B02D07B6C752B13D197F84A3050
S2140033B007F11C0107F1100297F84B000090084631
S2140033C011460022FFF73EFEF86507F11C02FB6D72
S2140033D013443B667A6D07F11803F96800912020C4
S2140033E0F96DFFF70FFE3B6E002B0FD00AE03B6E29
S2140033F05A1E3A661B785AB2FB6810469847BB6955
S2140034000133BB613B6E1B78002BF0D140E07B6C38
S214003410632B0DD17B681A1D7A601B68DBB25BB22A
S2140034203B64FB68386C9847BB690133BB612FE08F
S2140034307B6C732B26D17B681A1D7A601B68FB6435
S214003440FB6C002B24D0F86C39F0C3FE0346FB65FA
S2140034507A6D07F11803F96800912020F96DFFF7DF
S214003460D1FD0AE0FB6C5A1CFA641B785AB2FB6862
S21400347010469847BB690133BB61FB6C1B78002B79
S214003480F0D105E0FB68786C9847BB690133BB61F7
S2140034907B6E01337B667B6E1B785BB27B647B6CDA
S2140034A0002B7FF46FAEBB6918466837BD4680BDFB
S2140034B080B400AF074B4CF22052DA81054B4DF634
S2140034C02812DA81034B4FF4E9721A80BD465DF884
S2140034D0047B70470020054080B500AF224B234A8E
S2140034E01A602248142116F005FC214B00221A709F
S2140034F0204B00221A70204B204A1A60204B0022D4
S2140035001A601F4B1B68184606F038F81C4B1A68E2
S2140035101C4B1B681046194621F040F80346002B4A
S21400352020D100F02DF91CF06FFA174805F0DCFBEF
S2140035300346002B03D015480EF0AAFB02E0144801
S2140035400EF0A6FB134B1B78FF2B0BD10DF05CFE89
S21400355003461A460F4B1A700DF056FE03461A46DF
S2140035600D4B1A7080BD00BF188AFF1FC495FF1F41
S214003570108AFF1F148AFF1FB095FF1FA539000091
S214003580C885FF1F2086FF1FED4300008CDA03006E
S214003590B4DA0300CC85FF1FCD85FF1F80B582B04F
S2140035A000AF0123FB7113E00C481CF015FB03462B
S2140035B0FB710B4B1B78002B0AD1084B1B68002BAA
S2140035C006D0064B1B691846012111F07BFE02E06F
S2140035D0FB79012BE8D00837BD4680BDC495FF1F98
S2140035E0800C040080B584B000AF78607B68FB6018
S2140035F0FB68DB68BB60BB68002B05D0B86802F0D0
S2140036009DFEB86816F0E4FAF86816F0E1FA10378E
S214003610BD4680BD90B585B000AF78607B68FB6026
S214003620FB681B68314A93422FD0304A934209D830
S2140036302F4A93424ED32F4A934220D92E4A934282
S2140036403AD047E02D4A93420DD02C4A934206D3F7
S2140036502B4A934207D02B4A93422DD03AE00020C3
S21400366000F0BAF937E0284B1B68284A0021D154ED
S214003670012000F0B1F9264B00221A702BE0FB68FF
S2140036801B68184600F0C8F925E0042000F0A4F9ED
S214003690204A214B14460FCB84E80F001A4B1B68B8
S2140036A01A4A0121D1541A4B01221A7005F048FC1F
S2140036B0174B00221A700EE0134B1B68134A0021AA
S2140036C0D154052000F088F9144B1B7818460DF0ED
S2140036D039FF00E000BFFB68DB68184616F078FA92
S2140036E0F86816F075FA1437BD4690BD020005035B
S2140036F0020003030300030301000503040005039F
S2140037000700050308000503C885FF1F148AFF1F6E
S214003710D995FF1F208AFF1FB0F4FF1FCD85FF1F1E
S21400372080B584B000AF78607B68FB60FB681A6881
S214003730124B1344072B1BD801A252F823F000BFEC
S21400374071370000713700007137000071370000D4
S21400375061370000693700006937000071370000E4
S214003760012000F039F903E0002000F035F900BF31
S214003770F86816F02DFA1037BD4680BDFFFFF9FC3D
S214003780B0B58EB002AF104B07F108041D460FCD42
S2140037900FC40FCD0FC495E8030084E803000B4A5E
S2140037A03B1D106818603A1D07F1080305210091BB
S2140037B000201146002232F02BFC03461A46044B2A
S2140037C01A703037BD46B0BDCCDA0300F4DA030019
S2140037D0D085FF1F80B582B000AF78607B68013B64
S2140037E00B2B37D801A252F823F000BF1D3800007B
S2140037F01D3800001D3800001D3800005538000038
S2140038005538000055380000553800004F38000085
S2140038104F3800004F3800004F3800000F4B1B6831
S2140038200F4AD35C002B05D00C4B1B680C4AD35CAC
S214003830052B0BD1012000F0CFF80A4B01221A709D
S214003840064B1B681846012122F00EFA03E006F02C
S21400385063FF00E000BF0837BD4680BDC885FF1F78
S214003860108AFF1F0C8AFF1F80B582B000AF7860F9
S2140038707B68013B0B2B77D801A252F823F000BFE0
S214003880B1380000F3380000033900001339000097
S2140038902339000033390000433900005339000053
S2140038A063390000633900006339000063390000A3
S2140038B02F4B1B682F4804211A461CF06DF9FF2079
S2140038C00021FF2206F018F80B2000F085F82A4B9E
S2140038D01B7818464621294A00230DF01DFE284B6A
S2140038E01B7818464FF47A71264A00230DF014FE12
S2140038F03BE01F4B1B68244800211A461CF04CF97D
S21400390033E01B4B1B68214800211A461CF044F983
S2140039102BE0174B1B681E4800211A461CF03CF98A
S21400392023E0134B1B681B4800211A461CF034F991
S2140039301BE00F4B1B68184800211A461CF02CF998
S21400394013E00B4B1B68154800211A461CF024F99F
S2140039500BE0074B1B68124800211A461CF01CF9A6
S21400396003E006F0D9FE00E000BF0837BD4680BD84
S214003970188AFF1FB5410000CC85FF1FA14100003B
S214003980CD85FF1F39450000CD3A0000E93C000018
S2140039909D3D0000013C0000313E0000D53D00008A
S2140039A0053E000080B584B000AF78607B68FB60A1
S2140039B0074B1B68074AD35C002B03D1F868FFF758
S2140039C009FF02E0F868FFF74FFF1037BD4680BDDD
S2140039D0C885FF1F148AFF1F80B582B000AF03465C
S2140039E0FB710A4B1B680A4AF979D154074B1B68CE
S2140039F0084AD25C054B1B680549CB5C1046194645
S214003A0005F066FF0837BD4680BD00BFC885FF1FAE
S214003A10108AFF1F148AFF1F80B582B000AF78603F
S214003A20104B1B78002B19D07A680F4B9A420ED198
S214003A300E4B1B78002B06D00D4B1B681846012139
S214003A4022F012F90AE0074B00221A7006E07A68A4
S214003A50084B9A4202D1034B00221A700837BD4623
S214003A6080BD00BF0C8AFF1F03000303CF85FF1F26
S214003A70C885FF1F0200030380B584B000AFB9609D
S214003A807A603B600346FB73FB7B012B14D17B689B
S214003A905B6B5A687B685B6B1B78104608491A4656
S214003AA017F0A4FC0346002B06D0064B1B680648FE
S214003AB000211A461CF070F81037BD4680BD00BFC6
S214003AC068000400188AFF1FCD3A000080B588B051
S214003AD000AF78600023BB6106F030F97861254BB3
S214003AE01B68184620F0D4FC38613B6993F83A30DE
S214003AF0184621492AF046FA0346002B2BD11F4BC5
S214003B001B78184631F014FDB861BB69002B22D033
S214003B100223FB77BB6900229A62BB6918461649E6
S214003B20102217F023FC786939F053FBF860B86967
S214003B30134932F0FFF9104B1B78FF2B04D00123FA
S214003B40FB77BB690F4A9A62FB7FB86919467A69A8
S214003B50FB6831F0E3FF0C480EF068F878690EF069
S214003B6065F80EF029F8786916F032F82037BD4669
S214003B7080BD00BFC885FF1F208AFF1FD085FF1F9E
S214003B8064000400793A0000F8DA030090B589B0C2
S214003B9000AF78600B46FB70FF23FB77154B1B7856
S214003BA0184631F0C5FCB861BB69002B1CD0124B1F
S214003BB007F108040FCB84E80F00BB6900229A6265
S214003BC0BA6907F1080310461946102217F0CEFB13
S214003BD0B8690A4932F0AEF9FB78B86902217A680A
S214003BE031F09CFF0346FB77FB7F18462437BD4623
S214003BF090BD00BFD085FF1FB0F4FF1F6C0004000F
S214003C0080B584B000AF78600A4A07F1080392E8EE
S214003C10030083E8030007F1080318460821FFF7AE
S214003C20B5FF0346002B02D1786800F001F9103783
S214003C30BD4680BD04DB030080B586B000AF78606B
S214003C400B46FB70234B1B68184620F021FC38619E
S214003C503B6993F83A3018461F492AF093F9034611
S214003C60002B2FD11D4B1B78184631F061FCF860F5
S214003C70FB68002B25D00223FB75FB6800229A62A6
S214003C80FB6818461449102217F070FBF8681449B0
S214003C9032F050F9104B1B78FF2B05D00123FB7533
S214003CA0FB68104A9A6204E0FB787868194600F0D0
S214003CB001F9FB78FA7DF86811467A6831F02EFF34
S214003CC005E004E0FB787868194600F0F3F818374A
S214003CD0BD4680BDC885FF1F208AFF1FD085FF1FF9
S214003CE05C000400793A0000B0B58AB002AF786094
S214003CF0294B07F108041D460FCD0FC42B681A4642
S214003D00228002341B0C23700120FF211CF039FD99
S214003D100346FB770120FF211CF033FD0346BB77EB
S214003D200120FF211CF02DFD03467B77FA7F4FF024
S214003D30000307F108014C1D0121009110461946A9
S214003D40224603231CF04EFABA7F4FF0000307F119
S214003D50080101F10A040121009110461946224685
S214003D6003231CF03FFA7A7F4FF0000307F10801A7
S214003D7001F10F0401210091104619462246032343
S214003D801CF030FA07F1080318461321FFF754FF1A
S214003D902037BD46B0BD00BF0CDB0300B0B588B011
S214003DA000AF78600A4B07F10C041D460FCD0FC418
S214003DB02B681A46228002341B0C237007F10C0372
S214003DC018461321FFF738FF2037BD46B0BD00BFA9
S214003DD00CDB030080B584B000AF7860084A07F1BA
S214003DE0080392E8030018600433198007F10803FB
S214003DF018460621FFF720FF1037BD4680BD00BFDE
S214003E0020DB030080B586B000AF7860074A07F174
S214003E100C0307CA83E8070007F10C0318460C21B9
S214003E20FFF70AFF1837BD4680BD00BF28DB03003A
S214003E3090B587B000AF7860074B07F108040FCB4A
S214003E4084E80F0007F1080304481946102217F00B
S214003E508DFA1C37BD4690BDB0F4FF1F208AFF1FA9
S214003E6080B584B000AFB9607A603B600346FB73F0
S214003E70BB68002B0DD0FB7B002B0AD17B68B3F808
S214003E804830022B05D13B68DBB2B868194600F013
S214003E9011F8FB7B012B0AD07B6893F84730002B88
S214003EA005D1786803210022002331F037FE103751
S214003EB0BD4680BD80B584B000AF78600B46FB7011
S214003EC0544B1B68544A0121D15478685349022246
S214003ED017F08CFA0346002B03D00720FFF77CFD73
S214003EE094E078684E49032217F080FA0346002BC8
S214003EF003D00820FFF770FD88E07868494906225D
S214003F0017F074FA0346002B03D00A20FFF764FD6F
S214003F107CE078684449052217F068FA0346002BCF
S214003F2003D00920FFF758FD70E078683F49032268
S214003F3017F05CFA0346002B5DD03C4839F049F98F
S214003F4003467A681344FB600023FB720023BB72AF
S214003F5000237B720B233B72344839F03AF9034650
S214003F60DBB2FA78D31AFB7035E0FB681B785BB2DD
S214003F70722B0AD1FB680133FB60FB78013BFB70B8
S214003F80F8681CF005F90346FB72FB681B785BB209
S214003F90672B0AD1FB680133FB60FB78013BFB70A3
S214003FA0F8681CF0F5F80346BB72FB681B785BB23A
S214003FB0622B0AD1FB680133FB60FB78013BFB7088
S214003FC0F8681CF0E5F803467B72FB78013BFB7053
S214003FD0FB680133FB60FB78002BC6D1F97ABA7A0E
S214003FE07B7A084611461A4605F086FC3B7A184648
S214003FF0FFF7F2FC0AE078680D490B2217F0F6F995
S2140040000346002B02D00C20FFF7E6FC1037BD4617
S21400401080BD00BFC885FF1F148AFF1F34DB030066
S21400402038DB03003CDB030020DB030044DB03003B
S21400403028DB030080B596B000AFB9607A603B60BD
S2140040400346FB7300237B6500233B650A23FB6462
S2140040507B68B3F84830012B07D105F06FFE786512
S214004060786D39F0B6F838653AE07B68B3F84830D2
S214004070022B35D1FB7B002B32D1BB68002B2FD017
S2140040807A6807F110030A2011461A462E231CF000
S2140040907CFA23480DF0CAFD3B68002B18D03A681E
S2140040A0FB6C9A4202D3FB6C013B3B6007F140027B
S2140040B03B68134400221A7007F140031846B9689B
S2140040C03A6817F053F907F1400318460DF0E0FD83
S2140040D007F11003134819460DF0DAFD0DF06CFDDC
S2140040E07B6893F84730002B11D17B68B3F84830D3
S2140040F0012B06D1786803217A6D3B6D31F00EFDF9
S21400410005E0786803210022002331F007FD7B6D6F
S214004110002B02D0786D15F05BFD5837BD4680BD8C
S214004120F8DA030048DB030080B584B000AFB9605E
S2140041307A603B600346FB73BB68002B1BD0FB7B9F
S214004140002B18D1B8681349062217F04FF903461A
S214004150002B05D07B6810481946102217F006F988
S214004160B8680E49072217F041F90346002B02D023
S2140041700020FFF75DFE7B6893F84730002B05D1E3
S214004180786803210022002331F0C8FC1037BD46B2
S21400419080BD00BFFCDA0300208AFF1F04DB03009B
S2140041A080B582B000AF786015F098FF0837BD463E
S2140041B080BD00BF80B588B000AF78600023BB61CB
S2140041C07B68DBB2184604F035FF7861244B1B6829
S2140041D0184620F05DF938613B6993F83A30184686
S2140041E0204929F0CFFE0346002B2BD11E4B1B780F
S2140041F0184631F09DF9B861BB69002B22D0022326
S214004200FB77BB6900229A62BB69184615491022E3
S21400421017F0ACF8786938F0DCFFF860B869134935
S21400422031F088FE0F4B1B78FF2B04D00123FB7761
S214004230BB690F4A9A62FB7FB86919467A69FB68C0
S21400424031F06CFC0B480DF0F1FC78690DF0EEFCDB
S2140042500DF0B2FC786915F0BBFC2037BD4680BD7A
S214004260C885FF1F208AFF1FD085FF1F740004002B
S214004270793A0000F8DA030080B59CB000AFB96068
S2140042807A603B600346FB730023FB660023BB6635
S2140042901E233B66002387F867307B68B3F84830F8
S2140042A0012B41D1B8684A49032217F09FF803460C
S2140042B0002B07D1B8684749032217F097F8034642
S2140042C0002B03D0042387F8673022E0B868424901
S2140042D0012217F08BF80346002B03D0012387F842
S2140042E0673016E0B8683D49012217F07FF80346AC
S2140042F0002B03D0022387F867300AE0B8683849F5
S214004300012217F073F80346002B02D0032387F828
S214004310673097F86730184604F08CFEF866F86E3B
S21400432038F057FFB86639E07B68B3F84830022BA0
S21400433034D1FB7B002B31D1BB68002B2ED07A68A2
S21400434007F110030A2011461A462E231CF01DF909
S21400435024480DF06BFC3B68002B17D03A683B6E88
S2140043609A4201D93B6E3B6007F140023B6813441A
S21400437000221A7007F140031846B9683A6816F02A
S214004380F5FF07F1400318460DF082FC07F1100315
S214004390154819460DF07CFC0DF00EFC7B6893F872
S2140043A04730002B11D17B68B3F84830012B06D17B
S2140043B078680321FA6EBB6E31F0B0FB05E07868D2
S2140043C003210022002331F0A9FB7037BD4680BDD3
S2140043D064DB030068DB03006CDB030070DB0300B8
S2140043E074DB0300F8DA030048DB030080B582B014
S2140043F000AF0346FB71064B1B78FF2B04D1044B22
S214004400FA791A7000F006F80837BD4680BD00BF7E
S214004410CE85FF1F80B582B000AF0023FB7100235E
S214004420BB7100237B71224B1B7818460DF08AF86F
S214004430204B1B78022B0ED0032B16D0012B00D05E
S2140044401DE01D4B1B681D4801211A461BF0A4FBEE
S214004450FF23FB7113E0184B1B68184802211A460D
S2140044601BF09AFBFF23BB7109E0134B1B68134834
S21400447003211A461BF090FBFF237B7100BFF979DE
S214004480BA797B79084611461A4605F035FA0B20AC
S214004490FFF7A2FA074BFF221A70054B1B78184647
S2140044A06421074A00230DF037F80837BD4680BD63
S2140044B0CC85FF1FCE85FF1F188AFF1FB541000061
S2140044C0A141000080B598B000AFB9607A603B604B
S2140044D00346FB737A6807F130030A2011461A4632
S2140044E02E231CF052F812480DF0A0FB3B68002B60
S2140044F00CD007F110023B68134400221A7007F133
S21400450010031846B9683A6816F030FF07F1100233
S21400451007F13003074811461A460DF0B9FB0DF0B7
S2140045204BFB7B68B3F84830012B6037BD4680BD37
S214004530F8DA030078DB030080B584B000AF78605B
S2140045400F4B1B7818460CF0FDFF0E4BFB600E4819
S2140045500DF06CFB0D48F9680DF09AFB0DF02CFB86
S214004560F86815F035FB064B1B7818464FF47A7141
S214004570074A00230CF0D0FF1037BD4680BD00BFB1
S214004580CD85FF1FA0DB0300F8DA0300A8DB0300DD
S2140045903945000080B400AF00BEBD465DF8047B20
S2140045A0704700BF80B400AFBD465DF8047B70471F
S2140045B080B582B000AF78603960786836F0A8FDC4
S2140045C002463B681A603B681B68B3F1FF3F08D0A1
S2140045D03B681B68054806491A4636F0E9FD054B58
S2140045E000E0002318460837BD4680BD1D4B00007E
S2140045F0614B00008400040080B582B000AF786094
S2140046003960044879681C2216F0B0FE0837BD46AB
S21400461080BD00BF308AFF1F80B582B000AF034662
S2140046203960FB80BB1D502019463A6801F04CF8F3
S214004630034618460837BD4680BD00BF80B584B027
S21400464000AF78600023FB8107F10E035020194667
S2140046507A6801F085F8FB8918461037BD4680BD9C
S21400466080B582B000AF03463960FB80BB1D532087
S21400467019463A6801F028F8034618460837BD463A
S21400468080BD00BF80B584B000AF78600023FB819A
S21400469007F10E03532019467A6801F061F8FB898A
S2140046A018461037BD4680BD80B584B000AFC7E958
S2140046B002017A6007F10803302019467A6801F093
S2140046C003F8034618461037BD4680BD80B582B055
S2140046D000AF03463960FB71FB1D282019463A6877
S2140046E000F0F2FF034618460837BD4680BD00BFFF
S2140046F080B584B000AF78604FF000024FF0000342
S214004700C7E9022307F10803302019467A6801F04A
S21400471027F8D7E90223104619461037BD4680BD54
S21400472080B588B000AFB9607B600346FB73134664
S214004730BB73FF233B7500237B750023BB750023EB
S214004740FB7500233B7600237B760023BB76002395
S214004750FB7600233B7707F10F03962019467A680D
S21400476000F0B2FF0346FB77FB7F012B06D18520C6
S214004770B9687A6800F0A8FF0346FB77FB7F012B39
S2140047800AD1BB7B3B7707F11403942019467A685D
S21400479000F09AFF0346FB77FB7F18462037BD469E
S2140047A080BD00BF80B586B000AF0346B9607A60B2
S2140047B0FB7307F10F03962019467A6800F084FF12
S2140047C00346FB75FB7D012B06D18520B9687A6808
S2140047D000F0C6FF0346FB75FB7D18461837BD463E
S2140047E080BD00BF80B582B000AF03463960FB7164
S2140047F0FB1D212019463A6800F066FF034618465E
S2140048000837BD4680BD00BF80B584B000AF786075
S2140048100023FB7307F10F03212019467A6800F086
S2140048209FFFFB7B18461037BD4680BD80B582B023
S21400483000AF03463960FB71FB1D522019463A68EB
S21400484000F042FF034618460837BD4680BD00BF4D
S21400485080B584B000AF78600023FB7307F10F03C8
S214004860522019467A6800F07BFFFB7B184610370B
S214004870BD4680BD80B592B000AF786039605823E1
S2140048807B643868FFF7DAFE03463B817B681B785B
S2140048903B767B685B787B767B685B887B837B6814
S2140048A0D3E90223C7E908237B6893F8263087F804
S2140048B02A307B685B7C87F82B307B689B7C87F88C
S2140048C02C307B68D3E90623C7E90C237B68DB7CA6
S2140048D087F8383007F10803184636F0C5FA03465D
S2140048E07B647B6C18464837BD4680BD80B586B075
S2140048F000AF3B600346FB710B46BB7113467B71F2
S214004900FF233B7400237B740023BB740023FB74DB
S21400491000233B7500237B750023BB750023FB75C6
S2140049205D2001213A6800F067FF07F110037C2044
S21400493019463A6800F0C8FE782007F120013A6868
S21400494000F0C2FE01237B7307F10D0379201946A0
S2140049503A6800F0B9FE0023FB738CE0FB7B7A79A3
S2140049609A4200D083E007F10F03962019463A6872
S21400497000F0AAFE992000213A6800F03DFF95203D
S21400498001213A6800F038FF0023BB7334E07B79DE
S214004990BA7902FB03F3DAB2BB7B1344DBB23B7398
S2140049A00023BB6007F10E039B2019463A6800F00F
S2140049B08BFE07F10C03882019463A6800F084FE47
S2140049C0892000213A6800F017FF8A2000213A6803
S2140049D000F012FF07F10C03972019463A6800F022
S2140049E073FE07F10803922019463A6800F06CFE41
S2140049F0BB7B0133DBB2BB73BB7BBA799A42C6D8AA
S214004A009A2000213A6800F0F7FE862001213A68D5
S214004A1000F0F2FE872000213A6800F0EDFE9A20B2
S214004A2001213A6800F0E8FE862003213A6800F08B
S214004A30E3FE872004213A6800F0DEFE982000217D
S214004A403A6800F0D9FE8B2001213A6800F0D4FEC7
S214004A508C2000213A6800F0CFFE8D2000213A68B5
S214004A6000F0CAFE8E2001213A6800F0C5FEFB7BEE
S214004A700133DBB2FB73FB7BFA799A423FF66EAFEB
S214004A801837BD4680BD00BF80B584B000AFF87152
S214004A90B9717A713B710023FB7337E0FB7BBA79FF
S214004AA002FB03F3DAB2FB791344DBB2BB7307F104
S214004AB00E0397201946FA6A00F006FE912007F1C9
S214004AC01801FA6A00F000FE07F12003902019464C
S214004AD0FA6A00F0F9FD07F124038F201946FA6AF6
S214004AE000F0F2FD93200121FA6A00F085FEFA7BC1
S214004AF07B799A4200D006E007F1280392201946F7
S214004B00FA6A00F0E1FDFB7B0133FB73FA7B3B792D
S214004B109A42C3D31037BD4680BD00BF80B582B071
S214004B2000AF786039607B681B78022B09D0042BB5
S214004B300CD0012B00D00EE07868396800F06AF9D6
S214004B4009E07868396800F079F804E07868396830
S214004B5000F09CF900BF002318460837BD4680BD0C
S214004B6080B582B000AF786039607B681B780D3BFB
S214004B70182B5AD801A252F823F000BFF34B0000BE
S214004B802B4C00002B4C00002B4C00002B4C000044
S214004B902B4C00002B4C00002B4C00002B4C000034
S214004BA02B4C00002B4C00002B4C00002B4C000024
S214004BB0E14B0000014C00002B4C00002B4C000089
S214004BC02B4C00002B4C00002B4C00002B4C000004
S214004BD02B4C00002B4C00000F4C00001D4C00001E
S214004BE07B6808331846396800F0EEFC14F020FEA7
S214004BF01CE07B6808331846396800F06FFC15E047
S214004C007B6808331846396800F00AFE0EE07B68B9
S214004C1008331846396800F0BDFE07E07B680833A5
S214004C201846396800F088FE00E000BF786814F087
S214004C30CFFF002318460837BD4680BD90B587B025
S214004C4002AF7446786039607B6893F82230002B98
S214004C5004D07B6893F82230012B03D1786814F0D7
S214004C60B7FFCDE07B689B7C022B12D17B68D3E933
S214004C7002014FF6FF724FF00003994208BF9042C0
S214004C8007D1614B1B78002B03D1786814F0A0FF86
S214004C90B6E07B6893F822107B68D3E90623786831
S214004CA024300090084600F053FF0346012B40F0E6
S214004CB0A480564B1A782346382011461A4614F01C
S214004CC031FFF860FB68002B00F08980FB683A68CB
S214004CD01A607B6893F82220FB681A717B689A7CBE
S214004CE0FB685A717B681A8AFB68DA807B68D3E9AE
S214004CF00223F968C1E902237B68D3E90623F96831
S214004D00C1E904237B681A8CFB681A837B6893F8D6
S214004D1023301A46FB685A837B689A6AFB68DA6116
S214004D207B6893F82420FB6883F820207B6893F840
S214004D302520FB6883F821207B6893F82C20FB68ED
S214004D4083F822207B6893F82D20FB6883F82320C5
S214004D507B68D3E90C23F968C1E90A237B6893F8DA
S214004D603820FB6883F83020FB68002283F8312067
S214004D70FB687A685A63FB681B79022B0DD1FB68C7
S214004D80D3E904014FF6FF724FF0000302EA000277
S214004D9003EA0103F968C1E90423FB68596B7B68E1
S214004DA0DA6BFB685B8B084611461A4616F05CFB0E
S214004DB0174B9B69002B08D0FB6893F82330022B17
S214004DC003D1134B9B69F8689847FB681A79FB6810
S214004DD01033F86811461A4631F0DEFF10E07B68A3
S214004DE093F822207B681833002011461A4631F0CB
S214004DF0D3FF786814F0ECFE02E0786814F0E8FE62
S214004E001437BD4690BD00BFD185FF1F8005040046
S214004E10308AFF1F80B586B000AF786039603B6887
S214004E20FB607B681B7A3B757B685B7A7B757B686F
S214004E30DB683B6107F10C03786819460C2216F014
S214004E4095FA104B5B69002B05D00E4B5B6907F19A
S214004E500C0210469847786831F086FF7B685B7ACC
S214004E60002B05D0084B1B695A1C074B1A6104E03F
S214004E70054BDB685A1C044BDA6004F095FD1837C6
S214004E80BD4680BD308AFF1F4C8AFF1F80B582B0AA
S214004E9000AF78603960786814F09AFE0837BD462F
S214004EA080BD00BF80B588B000AF7346F860B960BB
S214004EB07A600022BA61F122FA775A4A1268511CC7
S214004EC0584A1160FA68928C02F14001564A1278EC
S214004ED0084611461A4614F025FEB861BB69002B39
S214004EE000F09780BB6903F14002BB69DA63BB69D7
S214004EF0D96BFB681A6AFB689B8C084611461A46F3
S214004F0016F034FABB6900221A70B868FFF796FBF1
S214004F1003461A46BB691A81FB681B78022B0AD126
S214004F20B868FFF7AFFB03469AB24FF00003B969C3
S214004F30C1E904230BE0FB681B78032B07D1B86894
S214004F40FFF7D6FB02460B46B969C1E90423FB68A6
S214004F50D3E90223B969C1E90823FB685A78BB691B
S214004F605A76FB685A88BB695A83FB689A7CBB6989
S214004F7083F82C20FB68DA7CBB6983F83820FB6852
S214004F801A7CBB6983F82920FB689B8CDAB2BB6964
S214004F9083F82820FB685A7CBB6983F82B20FB68C3
S214004FA01A78BB691A76FB6893F82620BB6983F8E3
S214004FB02A20FB68D3E90623B969C1E90C23B8693E
S214004FC0B96836F001F90346FB77FB7F002B18D053
S214004FD0144B9B685A1C134B9A60BB697B61BB6978
S214004FE093F829207B691A727B697A681A607B6954
S214004FF0FA7F5A727B6900225A60786931F0B4FEF3
S2140050000AE0084B5B685A1C064B5A6004F0A6FC84
S21400501002E0002031F0A8FEFB7F18462037BD4690
S21400502080BD00BF4C8AFF1F8005040080B586B097
S21400503000AF734602463960FA71F122FA75124AD9
S2140050401278402011461A4614F06CFD38613B6910
S214005050002B14D03B6903221A703B690833FB60AF
S214005060FB68FA791A703869396836F0ADF8034685
S214005070FB75FB7D002B02D0386914F0A9FDFB7D83
S21400508018461837BD4680BD8005040080B592B02E
S21400509000AF7860396007F1080300221A60043315
S2140050A000221A60043300221A60043300221A60B9
S2140050B0043300221A60043300221A6004330022EC
S2140050C01A60043300221A60043300221A60043384
S2140050D000221A60043300221A60043300221A6089
S2140050E0043300221A60043300221A6004331C239F
S2140050F03B727B681B68DBB23B747B685B68DBB229
S2140051007B747B689B687B6107F1080318463968E7
S21400511036F0D8F9034687F8473097F847301846F0
S2140051204837BD4680BD00BF90B595B000AF744609
S2140051307860396007F1080300221A600433002201
S2140051401A60043300221A60043300221A60043303
S21400515000221A60043300221A60043300221A6008
S214005160043300221A60043300221A60043300223B
S2140051701A60043300221A60043300221A600433D3
S21400518000221A60043300221A6004330E233B7296
S214005190254B1A782346102011461A4614F0C2FCF6
S2140051A0F864FB6C002B39D07B681B68DBB21846B2
S2140051B035F004F8034619461B4B1A782346084672
S2140051C011461A4614F0AEFCB864BB6C002B22D015
S2140051D07B685B68DBB27B747B681B68DBB23B7406
S2140051E0BB6C7B6107F108031846396836F06AF92C
S2140051F0034687F847307B681A68FB6C1A607B6842
S2140052005A68FB6C5A60FB6CBA6C9A60FB6C97F839
S21400521047201A7302E0F86C14F0DAFCFB6C1846B0
S2140052205437BD4690BD00BF8005040080B485B0ED
S21400523000AF786039600023FB73FB7B1846143799
S214005240BD465DF8047B704790B58DB000AF7446E0
S214005250F860B9607A6007F1140300221A6004331C
S21400526000221A60043300221A6004337B687B61D4
S214005270F1233B76364B1A782346382011461A46D9
S21400528014F050FCF862FB6A002B57D0FB6A192218
S2140052901A70FB6A0833BB62BB681A78BB6A1A705E
S2140052A0BB685A68BB6A5A60BB681A7ABB6A1A72CD
S2140052B0BB6A00229A7214F0D1FABB6A1B78012BE3
S2140052C002D1244B01221A70F86A796836F0FAF88F
S2140052D0034687F8273097F827303B7697F827302D
S2140052E0002B2BD01B4B00221A7014F0A1FA1A4B7D
S2140052F05B68002B1FD0FB6A3B623B6A97F827204F
S2140053001A713B6A7A681A60BB681A783B6A5A71E7
S2140053103B6A00229A713B6A00229A600E4B5B68D9
S214005320386A9847BB681B78012B03D1094B0022CB
S2140053301A7003E002E0F86A14F04AFCFB6807F112
S214005340140207CA83E80700F8683437BD4690BDE4
S21400535080050400608AFF1F308AFF1F80B586B074
S21400536000AF734678603960F122FA75204A1278E9
S214005370382011461A4614F0D5FB38613B69002BDD
S21400538031D03B691E221A703B690833FB60FB680C
S2140053900F221A72FB680F225A72FB6800229A725A
S2140053A0FB6800225A76FB6800225A73FB680022CC
S2140053B0DA72FB6800221A737B689A78FB689A7028
S2140053C0FB680022DA707B681A88FB681A803869E6
S2140053D0396836F077F80346FB75FB7D002B02D064
S2140053E0386914F0F5FBFB7D18461837BD4680BDBE
S2140053F08005040090B587B000AF744678603960C9
S214005400334B1A782346382011461A4614F08AFB86
S21400541078617B69002B57D07B6923221A707B69E1
S21400542008333B617B681A783B691A707B685A8838
S2140054303B695A807B68D3E902233969C1E90223B4
S2140054407B681A7C3B691A747B685A7C3B695A7481
S2140054507B68D3E906233969C1E906237B6893F89C
S21400546020203B6983F820207869396836F02AF8CE
S2140054700346FB73FB7B002B24D0786914F0A8FB53
S21400548014480021002200231AF04AFB124B1B6925
S214005490002B16D00E4B1A782346082011461A46C3
S2140054A014F040FBB860BB68002B0AD0BB683A68B3
S2140054B01A60BB68FA7B1A71074B1B69B868984775
S2140054C002E001E004F04AFA1C37BD4690BD00BF7A
S2140054D08005040014000503308AFF1F90B587B0CE
S2140054E002AF7446786039607B689B68987A7B6800
S2140054F099680A684B68796889681031009100F0ED
S21400550027FB0346012B51D12C4B1B68002B4DD09B
S2140055102B4B1B78002B49D07B689B7803F1180136
S214005520284B1A782346084611461A4614F0FAFA0B
S214005530F860FB68002B05D17B681B69184614F0E1
S21400554047FB38E0FB683A681A617B6899680A6826
S2140055504B68F968C1E900237B689B681B899AB28F
S214005560FB681A817B689B689A7AFB689A727B68EC
S2140055709B68DA7AFB68DA727B689B681A7CFB6841
S2140055801A737B689B781A46FB685A61FB6803F1BE
S21400559018017B68DA68FB685B69084611461A469C
S2140055A015F0E4FE054B1B68F86898477B681B6996
S2140055B0184614F00DFB1437BD4690BD308AFF1F09
S2140055C0608AFF1F8005040080B586B000AF734672
S2140055D078603960394A5268002A47D00C22FA753A
S2140055E07A685278002A04D17A68D178FA7D0A441B
S2140055F0FA75F97D324A1278084611461A4614F0B2
S21400560091FAF860FB68002B2CD07B681A78FB6850
S2140056101A71FB683A681A607B685A78FB685A7198
S214005620FB6800229A71FB6800229A607B685B78B0
S214005630002B17D17B689B68002B13D07B68DA7829
S214005640FB689A71FB6803F10C02FB689A60FB68C2
S21400565099687B689A687B68DB78084611461A4624
S21400566015F084FE154B5B68F86898477B685B7896
S214005670012B13D1134B00221A707B689B683B6189
S21400568008E03B69D3F89C30BB60386914F0A0FA98
S214005690BB683B613B69002BF3D10CE07B685B7811
S2140056A0002B08D17B689B68002B04D07B689B6826
S2140056B0184614F08DFA1837BD4680BD308AFF1F95
S2140056C080050400608AFF1F80B592B000AFF860C6
S2140056D0B9607A6007F1100300221A6004330022D2
S2140056E01A60043300221A60043300221A6004335E
S2140056F000221A60043300221A60043300221A6063
S214005700043300221A60043300221A600433002295
S2140057101A60043300221A60043300221A6004332D
S21400572000221A60043300221A6004331C233B74E0
S214005730FB68DBB23B7600237B76BB68FB6107F138
S21400574010031846796835F0BDFE0346002B14BFDB
S21400575000230123DBB218464837BD4680BD00BF94
S21400576080B592B000AFF860B9607A6007F11003B8
S21400577000221A60043300221A60043300221A60E2
S214005780043300221A60043300221A600433002215
S2140057901A60043300221A60043300221A600433AD
S2140057A000221A60043300221A60043300221A60B2
S2140057B0043300221A60043300221A6004330022E5
S2140057C01A6004330E233B74FB68DBB23B7600237F
S2140057D07B76BB68FB6107F110031846796835F0E5
S2140057E071FE0346002B14BF00230123DBB21846CC
S2140057F04837BD4680BD00BF80B584B000AFF860B6
S2140058000B467A60FB7207F10B03F86819467A6854
S214005810FFF75AFF034618461037BD4680BD00BF47
S21400582090B587B002AF7446786039607B68997A25
S2140058307B68D3E9002300200090084600F088F932
S2140058400346012B71D13A4B9B68002B6DD0394B28
S2140058501A782346282011461A4614F063F9F86091
S214005860FB68002B5ED07B68D3E90423F968C1E9A6
S21400587002237B681A7EFB68DA777B68DA7EFB6831
S21400588083F822207B6893F82820FB6883F823207F
S2140058907B68D3E90823F968C1E904237B681A8981
S2140058A0FB689A837B689A7EFB6883F821207B6876
S2140058B0D3E90023F968C1E900237B689A7AFB687C
S2140058C09A777B685A7EFB6883F82020FB683A68E4
S2140058D05A62FB68DB7F022B0DD1FB68D3E902011D
S2140058E04FF6FF724FF0000302EA000203EA0103DC
S2140058F0F968C1E90223FB689B7F022B0DD1FB6888
S214005900D3E900014FF6FF724FF0000302EA0002EF
S21400591003EA0103F968C1E90023054B9B68F868B0
S214005920984702E0786814F053F91437BD4690BDE6
S214005930308AFF1F8005040080B586B000AF78600F
S21400594039607B681B78022B0DD17B68D3E9020196
S2140059504FF6FF724FF0000302EA000203EA01036B
S2140059607968C1E902233B683B617B68D3E902237F
S214005970C7E902237B681B78BB757B681B8ABB82E2
S21400598007F108031846396831F028FA1837BD467B
S21400599080BD00BF90B585B000AF744678603960B2
S2140059A012480021002200231AF0BAF8104B1B6997
S2140059B0002B16D00F4B1A782346082011461A469D
S2140059C014F0B0F8F860FB68002B0AD07B681A78F1
S2140059D0FB681A71FB683A681A60054B1B69F86821
S2140059E0984703F0E1FF1437BD4690BD1400050349
S2140059F0308AFF1F8005040080B582B000AF786053
S214005A0039603B1D772019463A68FFF75DFE03466E
S214005A1018460837BD4680BD80B584B000AF7860B4
S214005A200023FB6007F10C03772019467A68FFF71E
S214005A3097FEFB6818461037BD4680BD80B584B01B
S214005A4000AF7860F970BA707B707B78BA7802FB2A
S214005A5003F3DAB2FB781344DBB2BB7307F10E0331
S214005A6097201946FA69FFF72FFE0346FB73FB7B68
S214005A70002B06D092207968FA69FFF771FE03467C
S214005A80FB73FB7B18461037BD4680BD80B582B0E1
S214005A9000AF786013460A46FA703B80FA783B8877
S214005AA0786811461A4606F03DFB0346002B14BFE5
S214005AB000230123DBB218460837BD4680BD00BF71
S214005AC080B582B000AF786013460A46FA703B8015
S214005AD0FA783B88786811461A4606F033FB034688
S214005AE0002B14BF00230123DBB218460837BD463F
S214005AF080BD00BF80B582B000AF0346FB71FB7966
S214005B00184605F05DFB034618460837BD4680BDBF
S214005B1080B483B000AF78600B46FB70034BFA7816
S214005B201A700C37BD465DF8047B7047D185FF1FA1
S214005B3080B487B000AFF860C7E900230823FB7580
S214005B40FB7D18461C37BD465DF8047B704700BFDA
S214005B5080B487B000AF0146C7E900230B46FB734D
S214005B600123FB75FB7D18461C37BD465DF8047B9C
S214005B70704700BF80B582B000AF0023FB710023E2
S214005B80FB710F4B1B78002B14D10FF0FBFA02466B
S214005B900C4B1A600B4B1B68002B03D0084B0122E2
S214005BA01A7007E00123FB71074AFB791046194675
